:20000000183F00202DA00000FDC90110FDC90110FDC90110FDC90110FDC90110FDC9011092
:1C002000FDC90110FDC90110FDC90110FDC90110FDC90110FDC901103BCA0110A4
:20003C002DE9F04F0120ADF15C0DADF81A000827ADF8187006A80AF043FD00263546DF4C58
:20005C008DF854509DF81C006070A6700898E0614FF6FF70A08238460BF072FC5FEA0008D5
:20007C000CD0012112220CF0F7F80BF079FC15A90123D64A009141460AF0B8FB9DF8540027
:20009C00DFF86C83324601232070414604F1A80009F054FF04F1CC0032460223414609F004
:2000BC004DFF04F1F00032460423414609F046FF042031461022E07004F1480008F084FCBD
:2000DC0004F158003146102208F07EFC2562267266720720E67204F148021021A072022082
:2000FC000AF0D8FD04F15802032010210AF0D2FD042004F1200201460AF0CCFD19E0A07853
:20011C00B4F84050B4F84230B4F84420B4F8461006280ED1ADF84250ADF84430ADF84620EF
:20013C00CC48ADF848100CF011FA012010A908F009FC0A20ADF80A00ADF808704FF0FF354B
:20015C00039502A80AF0BCFC002840F0E38130460C90ADF824700925ADF8265009A80AF094
:20017C00AFFCDDF82C900028CDF8309040F0D281BDF82800102840F0C18160789DF82A10C9
:20019C00884240F0BB814D4628884FF6FF71814200F0AC812B78A23B00F091812E3B40F01A
:2001BC00AD81A878B046002800F05E81801E00F03681401E012840F20B81801E00F0B98097
:2001DC00401E7FD0401E60D0083800F06981801E40F06B8194F83E30A888052BADF83400C1
:2001FC004BD001208DF83E009A480CF0AFF994F83E00012820D004281ED003280DD002282F
:20021C000BD00C98C188ADF836100189ADF838104189ADF83A1080892BE0B4F84000B4F833
:20023C004250ADF83600B4F84430ADF83850B4F84600ADF83A301CE0B4F84000E9888842C4
:20025C00D8BF081CADF836002989B4F842008842D8BF081CADF838006989B4F8440088423E
:20027C00D8BF081CADF83A00B4F84610A889814200DC0146ADF83C1001E08DF83E60B24ABE
:20029C000DA812210AF0D5FD0FE1B0480CF05EF96878002840F00981E888E082288920836B
:2002BC00688960836B480BF03DFF002840F0FD80A56A002D00F0F9802B68E08A218B628B54
:2002DC009847F2E0B5F804A00A200BF039FB5FEA00080AD0012115220BF0BEFFA8F808A023
:2002FC000BF03EFB41460BF02DF8BA483146062208F06AFBE68226836683A879607355487E
:20031C000CF024F991480CF021F94FF001084FF6FF706379A0824BB9A879082814BF042073
:20033C000520A07040460BF08BFDBEE00320A070BBE06878002843D1A649281D02680A60D3
:20035C00808888800623A3706889A082E889E082288A2083688A6083E878207394F83E0068
:20037C00012818BF022808D11F200AF0B9F84FF47A71414337480AF0E7FA95F803B0B5F87B
:20039C000AA014200BF0DCFA5FEA000800F09080012114220BF060FF88F808B02D1DC8F84D
:2003BC000C50A8F810A0042088F812000BF0D8FA814A41460AF0FCF97AE0C04650140020CD
:2003DC00687831286AD12671042022E067C200006878002862D1A878618AA278032813D039
:2003FC002079657931B9012814BF6671267107E05DBE0000054303D072480AF0A5FAA2788C
:20041C00072AE1D1062004E0062A06D0207910B90320A0704CE00220FBE70720F9E7687821
:20043C0000283BD1EB78A078E179ABB9022818D0072816D0062802D16179012911D10328FA
:20045C000FD060480BF06EFE58B901200BF0F8FC07E0C0461C1500205F4A404609F018FCF7
:20047C0068706878D0B920E06878B8B9564A022010210AF029FC554A032010210AF024FCAF
:20049C005648ED1C29680160AB888380544A01252846A179A57009F0FBFB48B1A77007E02A
:2004BC00A888464A10210AF0ABFCB8F1010F25D1606A18B3016809B3A07888471EE068795F
:2004DC0013281BD12889012808D1A07B022805D11E480CF03BF809F00DFD0FE0052009F066
:2004FC00FFFF014619480AF02FFA07E06888C00B04D3374A042001460AF0E6FB0C9848B13A
:20051C00ADF810700320ADF81200CDF8149004A80AF0D6FA208A65792179420831D320F061
:20053C00010055EA010320822BD08DB92D49207A8DF84A00657A8DF84B500A6813AB1A60F0
:20055C008988998007E0C04675C400004015002003208DF84A00A07AE57A194A8DF8520015
:20057C0006218DF853500DF14A0009F073FD616A30B1A77021B1086810B1096838468847DB
:20059C00208A810807D3184920F002002082304608F0D8F9208AC108FFF4CBAD20F00400EC
:2005BC00A57B2082681E3FF4AAAD401E7FF4C1AD09F0A0FCBDE5C0462FC2000099C4000083
:2005DC008DC40000F814002098140020A81400207014002088140020D71400207C140020BF
:2005FC00B8140020821400208E1400202DE9F04F054695F8F06000208346ADF1340D0C46E4
:20061C008146D8460190DA46CDF80890072E0B9000F03E822846802101220BF0B1FC074624
:20063C00FF21012228460BF0ABFC59465A46074328460BF0A5FC7FB2FF2106220743284687
:20065C000BF09EFC7FB283210AAA074328460BF08CFC9DF828207FB283210743284642F089
:20067C0004020BF08DFC7FB2FF210722074328460BF086FC7FB281210122074328460BF07C
:20069C007FFC7FB207430BF063FF012279B201434FB2284680210BF073FC07437FB26008FC
:2006BC0058D3700856D2284694216B220BF068FC0743284609F016FE7FB290216A460743A3
:2006DC0028460AF0CFF87FB2074300982422C0F3C03BC0F306210B91284694210BF050FCE8
:2006FC007FB20743284609F0FDFD7FB290216A46074328460AF0B6F89DF802309DF8012093
:20071C007FB207438DF8213094218DF822209DF803009DF800308DF8200025228DF82330CF
:20073C0028460BF02DFC7FB20743284609F0DAFD7FB290216A46074328460AF093F89DF8EE
:20075C0002307FB207439DF803008DF825307FB28DF82400A008C0F0D980B00880F0D68055
:20077C002846942102220BF00BFC0743284609F0B9FD7FB290210DF12902074328460BF0EF
:20079C00F4FB7FB294217B22074328460BF0F8FB7FB20743284609F0A5FD7FB290210DF1C1
:2007BC002A02074328460BF0E0FB7FB294217722074328460BF0E4FB7FB20743284609F070
:2007DC0091FD7FB207437FB2284690216A460AF049F807430098C0F38643410E8DF80D304A
:2007FC0078228DF80C10C0F3C6238DF80E309421C0F306138DF80F300307580E8DF82800E1
:20081C0028460BF0BDFB7FB20743284609F06AFD7FB290216A46074328460AF023F87FB2C2
:20083C0007439DF828100098C0F3865379228DF8113001EB50718DF81010C0F3C6338DF87D
:20085C0012309421C0F306238DF81330C0F346038DF8143000F0010398018DF82800284674
:20087C000BF08EFB7FB20743284609F03BFD7FB290216A460743284609F0F4FF7FB207430D
:20089C009DF8281000987A22C0F3C6438DF8163001EB90618DF81510C0F306338DF8173075
:2008BC009421C0F346138DF8183000F01F0398008DF8280028460BF063FB7FB20743284687
:2008DC0009F010FD7FB290216A460743284609F0C9FF7FB207439DF828100098C0F3064210
:2008FC00C0F3C6538DF81B207FB28DF81A3001EB90718DF8191052468DF81E20C0F346233E
:20091C008DF81C30C0F386018DF81D10E008C0F08280F0087FD2284694217B220BF030FB35
:20093C000743284609F0DEFC7FB2902101AA0743284609F097FF7FB294217C220743284600
:20095C000BF01EFB7FB20743284609F0CBFC7FB2902102AA0743284609F084FF7FB2942116
:20097C007322074328460BF00BFB7FB20743284609F0B8FC7FB207437FB2284690216A46FC
:20099C0009F070FF074300989421742200064FEA104828460BF0F4FA7FB20743284609F0D6
:2009BC00A1FC7FB290216A460743284609F05AFF7FB2074300989421752248EA106A284669
:2009DC000BF0DEFA7FB20743284609F08BFC7FB290216A460743284609F044FF7FB20743BE
:2009FC0000989421762200064FEA104828460BF0C7FA7FB20743284609F074FC7FB2902101
:200A1C006A460743284609F02DFF7FB2074300987FB248EA1068284681214A460BF0B0FAFA
:200A3C000743FF21062228460BF0AAFA7FB283210AAA074328460BF098FA9DF828207FB21F
:200A5C0083210743284622F004020BF099FA7FB2FF210122074328460BF092FA7FB2494605
:200A7C000122074328460BF08BFA7FB2FF214A46074328460BF084FA7FB280214A46074341
:200A9C0028460BF07DFA7FB207437FB20FB147E05F46072E44D0600810D370080ED20B9893
:200ABC0085F814B1062308A985F8130105F5957011F8012B5B1E00F8012BF9D1A0080ED349
:200ADC00B0080CD29DF829009DF82A3085F8F10003A985F8F23005F1F3000BF0BCFAE0087C
:200AFC001BD3F00819D24FEA4A220198C5F82021029BC5F81801B8F1000FC5F81C3108BFD1
:200B1C00484609D008494FF47A7000FB08F0401A000900B2404200B2E860344385F8F0402C
:200B3C0038460DB0BDE8F08F00A861002DE9F04F08270126ADF19C0DADF800706846ADF8D7
:200B5C00026009F0BDFFE44C9DF804002070029804F1340500212061284600F033FADF49EC
:200B7C000423324604F17400656109F0E7F900251F200621E56009F06FFF5020ADF8120054
:200B9C00B1468DF88B90ADF8105031468DF88C900DF18B02ADF816504FF44870ADF814003B
:200BBC004FF47A70ADF8180040F2053003F036FF40F20630022104AA03F030FF4FF4427050
:200BDC001E2104F1550203F029FF40F20730072104F1240203F022FF4FF44470314623AA58
:200BFC0003F01CFF40F2113002210DF1120203F015FF40F21230022105AA03F00FFF40F2A3
:200C1C00133002210DF1160203F008FF4FF44570022106AA03F002FFCF49032009F0AAFDA8
:200C3C000620A02109F018FF0720A02109F014FF3846A02109F010FF0920A02109F00CFF78
:200C5C008DF88D908DF88E90A8468DF890904FF481600421CDF80C8003AA8DF88F8009F0CC
:200C7C00E1FE4FF4806031460DF18D0209F0DAFE40F2024031460DF18E0209F0D3FE40F20C
:200C9C00034031460DF18F0209F0CCFE40F20640314624AA09F0C6FE03200AF02FF804204A
:200CBC000AF02CF8BF48C04A132109F037FC0AF007FBBE4DA860B8B10AF002FBE86098B189
:200CDC00A8680AF02DFEDFF8E8A205F1180712213846524609F022FCE8680AF021FE122151
:200CFC003846524609F01AFC022748468DF8927003238DF891004FF004098DF89330AD49AF
:200D1C008DF894900DF17D0740460A6809793A600DF191023971314608F0BEFB3046314628
:200D3C000DF1920208F0B8FB022031460DF1930208F0B2FB0320314625AA08F0ADFB05215A
:200D5C000DF17D02484608F0A7FB04F120006860994DA87830BB04F11C0095F801B095F828
:200D7C0003A0686218200AF0EBFD071C1AD0494642460BF04FF958460AF042FD387287F869
:200D9C0009A04046B87205F14803FB6005F158023A6105F1200179610AF0E2FD874A39463D
:200DBC0009F006FD0C200AF0CBFD071C0BD031464A460BF051FA04F12C00B8600AF0D0FDE2
:200DDC0039460AF0BFFA3046102109F0B1FF0220102109F0ADFF7A4942F22F000AF078FBEA
:200DFC00292584F8445284F845624FF4C870A4F8460208F03BFC06F065FD0320414605F0CF
:200E1C00D7FF0220314608F0C9FD0320414608F0C5FD04F1E800BF21424606460BF0B0F8F1
:200E3C0048B93046C0210DF195020BF09EF89DF895000028F5D13046BF2101220BF0A0F8F4
:200E5C0060B93046C0210DF195020BF08EF89DF895100029F5D008B984F81A828DF8898061
:200E7C00284641460DF18502012308F02DFC284607210DF18502012308F026FC6427284645
:200E9C0050210DF18A02012308F01EFC012128460DF189020B4608F017FC284646210DF1BD
:200EBC008902012308F010FC40B27F1EE7D100284ED104F0BBFD00284AD130460221FFF757
:200EDC0095FB071C14D194F8D90148B923A109780DF15A0001700BE008020020F5BF000020
:200EFC0094F8DA810DF15A0006F1F3010BF0B3F8002F2DD1B8F1000F0FD0B8F1220F02DC8A
:200F1C00B8F1200F07D1B8F1270FA4BF14A1152205DA19A102E01BA100E01DA10C220DF1D6
:200F3C001A0007F08EF81DA10DF13A000A6849680260416067B90DF17A023046C0210BF0F6
:200F5C0014F828B93046C2210DF196020BF00DF827B0BDE8F08FC0466FC4000000C046C09F
:200F7C00564C35334C305820455331206F72206C6174657200C046C0564C35334C30582091
:200F9C0054533200564C35334C30582054533100564C35334C30582054533000564C3533A7
:200FBC004C305800841B00201CCA0000481E002028CA00007ACA0000501400207BC400001D
:200FDC0041C40000DFF800F0F1B8011010B50446034803681BB10A4601202146984710BD5A
:040FFC006426002047
:201000003C000000000000000000000034100000000000000000000001000000000000004F
:1C10200000000000000000000000000001000000000000000800000000000000AB
:20103C003400000000000000000000006810000000000000000000000100000000000000E7
:14105C00010000000000000000000000080000000000000077
:2010700030000000000000000000000098100000040000000000000001000000FFFFFFFF87
:10109000FF00000001000000080000000000000048
:2010A0002C0000000000000000000000C4100000040000000000000001000000FFFFFFFF2F
:0C10C000FFFFFFFF080000000000000020
:2010CC0038140000E410000095A1011091A70110A1C2011009B2011041B8011000000000EA
:0810EC000000000030000000CC
:2010F400280000000000000000000000141100000000000000000000FFFFFFFF0000000093
:081114000800000000000000CB
:20111C00341400003011000065C2011069C101101BC2011091BA011000000000000000006D
:04113C002E00000081
:20114000341400005411000071C20110A5B6011099BF011045B601100000000000000000BD
:041160002F0000005C
:201164002400000000000000000000008011000000000000000000000000000008000000AE
:041184000000000067
:20118800240000000000000000000000A41100000000000000000000000000000800000066
:0411A8000000000043
:2011AC00240000000000000000000000C8110000000000000100000000000000080000001D
:0411CC00000000001F
:2011D000000000008C26002004000000000000000000000020000000701000003000000059
:2011F0001C110000942600200400000000000000000000000C00000030130000180000006D
:20121000401100009C260020040000000000000000000000240000004813000018000000F0
:2012300000000000A426002004000000000000000000000010000000A01000002C000000C4
:20125000CC100000AC260020040000000000000000000000200000006411000024000000F3
:20127000FFFFFFFFB42600200400000000000000000000002800000088110000240000007F
:20129000FFFFFFFFBC260020040000000000000000000000580000003C1000003400000064
:2012B000FFFFFFFFC426002004000000000000000000000010000000601300001800000079
:2012D000FFFFFFFFCC2600200400000000000000000000001C000000AC11000024000000EF
:2012F000FFFFFFFFD426002004000000000000000000000038000000F41000002800000060
:20131000FFFFFFFFDC26002004000000000000000000000054000000001000003C000000FB
:1813300018000000000000000000000040130000080000000000000032
:1813480018000000000000000000000058130000080000000000000002
:18136000180000000000000000000000701300000800000000000000D2
:08137800010000009CCA000006
:0413800030BF7047C3
:041384000100000064
:0413880000000E0053
:04138C0000000F004E
:041390003200000027
:041394000100000054
:04139800A825002064
:04139C00000200004B
:0413A0000000000049
:0413A400FDC901106E
:0413A8000000000041
:0413AC00000000003D
:0413B0000800000031
:0413B4000000230012
:0413B80040240020AD
:0413BC00010000002C
:0413C000C025002024
:0413C400080000001D
:0413C8000000000021
:0413CC00000000001D
:0413D0000000000019
:0413D400080000000D
:0413D8000000000011
:0413DC00000000000D
:0413E0000100000008
:0413E400D8240020E9
:0413E80006000000FB
:0413EC0001000000FC
:0413F000AC2300200A
:0413F40000000000F5
:0413F80000000000F1
:0413FC0000020000EB
:0414000000000000E8
:0214040070472F
:021406002A00BA
:021408000100E1
:02140A002600BA
:02140C002E00B0
:02140E002F00AD
:021410003000AA
:021412000100D7
:0114140001D6
:081418000300000040CA0000BF
:081420000000000000000000C4
:0414280000000100BF
:04142C0000000300B9
:0414300083C4011060
:041434003C14000064
:041438003C14000060
:04143C0000000000AC
:041440009000000018
:041444009000000014
:0414480000000000A0
:04144C00C025002097
:0414500085C0000053
:041454002000000074
:04145800ECC90000DB
:04145C0054C900006F
:0414600009C30110AB
:04146400578A0000A3
:04146800138D0000E0
:04146C0095C801100E
:0414700097C8011008
:041474000000000074
:0414780053C9000054
:04147C000CC8000098
:0414800024C800007C
:04148400F4C70000A9
:0214880008005A
:02148A00090057
:02148C0001005D
:02148E0000005C
:01149000015A
:041494000000000054
:041498000000000050
:04149C00000000004C
:0414A0000000000048
:0414A40075C500000A
:0414A8009DA90000FA
:0414AC00D1B80000B3
:0414B000B5AD0000D6
:0414B40017AF00006E
:0414B80001A400008B
:0414BC00318C00006F
:0414C00083C20000E3
:0414C400F997000094
:0414C80005BB000060
:0414CC00D1C3000088
:0414D0000800000010
:0414D40024000000F0
:0414D80018000000F8
:0414DC0028000000E4
:0414E00020000000E8
:0414E4003C000000C8
:0414E8000C000000F4
:0414EC0034000000C8
:2014F00021B1C968814201D1012070470020704738B505460AF0F8FF2C680CB12168296009
:201510000BF0BAF8204632BDF8B506460F46346800201546386034B90AF0E6FF376095B113
:20153000012129700FE005B128700AF0DDFF00E0246821680029FBD1BC4203D10BF09CF882
:201550000020F2BD27600BF097F80120F2BDF8B50C6805460AF0C8FF0026074634B100F056
:2015700009F800B126462468002CF8D101F083F83046F2BD21462846B2E700213022DFF873
:20159000340C4A43104490F82F20130603D5491C0829F3D3002070472DE9F8438046894639
:2015B000164600273021DFF80C0C7943441804F12C05B5F90000484508D1214600F035F981
:2015D00020B1300008D0E878304205D17F1C082FE8D30020BDE8F2832046FBE738B5042852
:2015F0001BD1DFF8E04A04F1E40528460AF050FD98B128460AF06AFFDFF8BC1B0A6850438E
:20161000B0F5967F09D228460AF066FF052009F023FD0120E07701F003F9002032BD70B581
:2016300000F026FADFF8945B064695F8340020EA040485F834400024286820B19C300AF069
:2016500027FD00B10124686820B19C300AF020FD04431FD195F83400002808BF002C19D1FF
:20167000A86AD0B190F820108A0707D5C46900F032FBA86A00220221A04708E0446900F095
:201690002AFBA86A00224FF400030021A0470020A86270BD304601F04FBD70BDF8B50023CC
:2016B0009E460AB94FF0010E002600291CBF8D6A002D6FF05047DFF804CB19D0446ABCB137
:2016D000C968C368994207D0DCF8003099420CBFDCF80860DCF80C60A408A4EB9504A61B31
:2016F000BE4229DA06F18056B6F1805F24D90123002A1CBF546A002C1BD0816AC9B1D268EA
:20171000C0680026904207D0DCF8000082420CBFDCF80860DCF80C60C6EB9406A6EB910670
:20173000BE4209DA06F18056B6F1805F04D94FF0010E03EA0E00F2BD0020F2BD884201D321
:2017500000207047012901D101207047022070472DE9F047DFF86C790E46B96A8046FFF7B9
:20177000BFFE002400254FF0010948B1B86A90F82E003146FFF7E2FFA146040018BFBD6A02
:20179000786AB0B1D7F824A010E0514600F04DF850B19AF82E003146FFF7D0FF4FF0000962
:2017B00008B10CB955460446DAF800A0BAF1000FEBD1B9F1000F18BF022034D1002C18BF14
:2017D000002D2FD0B86A2E4686420CD1B96A00F02CF840B1B86A90F82F1041F0080180F8CF
:2017F0002F107E6A5EB1314600F01FF828B196F82F0040F0080086F82F003668F2E7DFF85C
:20181000BC0900F13201C0F82880C0F82C8004F001048A7842F001028A70AA8D02860C70A6
:20183000012000E00020BDE8F087404658E62DE9F04F8DB00446DDF85880DFF83C7B002060
:20185000787388F80000894693469A46FFF795FE050042D001F0F3FAA8853868A04205D182
:20187000387BC10744BF00F0FE003873DAF80000A8629BF80C0000F00F0002280CBFDBF8FF
:2018900008000020B9F1000F686222D009F19C000AF0FEFB002857D101F04AFA040021D197
:2018B000706AF8B101F049FA0A90B06A20B1726AB16A00F055F838B9B06A98B9726A6946C1
:2018D0002846FFF7EBFE68B1706A286075620120787328460DB0BDE8F08F012088F800005D
:2018F0000020F7E7787B0028F3D114B9746A00E024685CB3226800F032F80028F8D02068B9
:20191000286025600220E3E7787B0028E1D1746A24B100E0246820680028FBD19BF80C10A7
:2019300001F08F010229D4D12CB1002200F017F80028CED108E0B06A0028CAD0B16A002280
:2019500000F00EF80028C4D10220C7E79AF804104846FFF7FDFE0128D6D10420B8E72146D5
:2019700028469BE670B500200AF020F8DFF854670FF22D51002200F067FED6E900450AF08B
:2019900027FB844231BF041B401E041B641C307EDFF8E859240BF46000281CBF697D0129E7
:2019B00003D0307CC002A0422BD20121317600206875DFF8CC0901680A0622D540F60900D6
:2019D00028800021687B696000F0AAFC6873287B00F0F00028730AF087FDDFF8A8194A692A
:2019F00022F002024A616FF002020A610D600B699C07FCD50A614A6942F002024A610AF0FA
:201A10003BFE0020C6E90000F06008F005FE287D20B9F16B01F140000AF08CFDDFF8201CC1
:201A30000020086070BD10B500F022F8DFF858190A7814430C700AF01FFE832010BD70B5C9
:201A500000F016F80646DFF840090178012559B1027822EA04040470007820B90821DFF810
:201A7000E40B0AF073FD832500F035F9284670BD04460AF039BD10B50446207B00F00F00B9
:201A900002281DD101F059F9A168081ADFF83416C96B8008002914BFC96840F6C41101F5A5
:201AB0007A72824238BFB0F1405F09D2401ADFF808170A68B0FBF2F0012802D8012010BD14
:201AD000002010BDDFF8FC250146906A00B9704710B5906A90F82F00C3061CD5506AD0B1F5
:201AF000506A90F82F00C30615D4906AC068536ADC68A0420FD111B1012908D010BDBDE898
:201B100010404FF4004102F144000AF01FBD916A11630020906210BD70B5DFF8A865746A9F
:201B30000120FFF7CFFFB16A002944D1002C3BD0E068F16B884218BF4FF4806135D1A068A9
:201B5000FFF799FF050015D0306B98B90120FFF776FF83282FD1F06B78300AF0BDFC06F12D
:201B7000E404294620460AF0B3FC2046BDE870400AF0B0BCD4E90401DFF808285369034303
:201B900053610020D3680B43D360D061A0681060D0690028FCD006F12400FFF7A9FCB06207
:201BB0000020BDE870408DE7022106F14400BDE870400AF0CBBC70BDDFF80805C16B8A68C9
:201BD00001F12803506830B1984218BF0246F9D101E000207047507B10F00F0F02BF488D45
:201BF00040F609018842F4D1012070472DE97043DFF8B00BDFF8CC540AF0E8F80446DFF8E1
:201C1000A80B01680668A86A06F4602668B1214089060AD5E862D0E9068949EA0403C0E93B
:201C300006834FF4005100F0DDF834400BD0DFF8EC0B81690C43846105F19400BDE8704395
:201C500000210AF083BCBDE8708370B50AF04CFCDFF8C84B0646A06910F4602F2FD0A5693C
:201C7000ED012D0EE80748BF002506D4A80748BF012502D4680748BF0225681D002140B24F
:201C900000F06CFEA169012205F1110082409143A16100F020F804EB8506F06838B154F8FF
:201CB0002500691DF56800224FF00063A847DFF8F81A086828B90220FFF7C1FE01E000F077
:201CD0000AF8A06930B1BDE870400021DFF8D40C0AF03CBC70BD30460AF0CEBCF8B5DFF83E
:201CF000E4530AF067F8AC6A002C024677D0100704D490075FD5286B00285CD10021A962A5
:201D1000D4E90401236A40F00A0632401A432262D4E906673243C4E90627DFF88C6AB26871
:201D30008243B2603268D4E904018A4332602146002205F13400FFF7E7FB022100F052F819
:201D5000286B00284BD0E168286BC268914246D1286B90F82F0094F82F10084310F0070046
:201D700018D0C10701D4810707D5286B90F82F1041F0010180F82F1005E0296B91F82F20D5
:201D9000104381F82F000022296B05F13400FFF7BBFB0DE0286BA8622A6BB368D2E90401B2
:201DB0000343B3602A6B3368D2E904010B43336000222A6313E0D4E9040102420FD0EC6214
:201DD000D4E90401236A02401A432262D4E906011043C4E906014FF4804100F003F8BDE822
:201DF000F14099E605F144000AF0B0BBB548B0F93810B0F93A00814204BF0120FFF71FBE39
:201E100070470720FFF70BBCF8B506460F46D6F868C014461D46BCF1000F18BFE047D6E99D
:201E3000180104400D400020854208BF844217D0802239463046FFF7AFFBC6E91C4538B15D
:201E5000D0E90623A243AB43C0E90623B16E41600020B06606F14000BDE8F2400AF06ABBC8
:201E7000F1BD704780B50AF06FFB964A0146D06B126CBDE80840104780B592480FF20D52C1
:201E9000016C914206D10120FFF7CDFDBDE8024000F0CBBCBDE80440042144300AF056BB4F
:201EB00070B584B009F086FF864D0FF2E1410446286C884222D10022DFF8841BDFF85C6976
:201ED00005F178000AF020FB0120FFF7ACFD012068764FF6FF710020A876B08B884208D1DF
:201EF0000221ADF80010684609F0CCFBBDF80800B083FFF761FE08B9FFF70EFEDFF83C0C65
:201F1000044203D04FF00051FFF76CFF7FBD80B509F050FF800707D5BDE804404FF480518E
:201F3000DFF820070AF012BB01BD10B5654C0146E06B4268506838B1012908BF09F04AFA8D
:201F5000E06B416848688047E06B42689068002804BFD168002914D0DFF8901B08680028CE
:201F7000FAD000230B60906800B18047E06B4068C06800B18047BDE81040DFF8B00C09F075
:201F900081BB10BD70B54F4D6C6B002C7DD0A168202000291CBFC2B2002A7CD00A8840F618
:201FB00003039A421FBF40F604039A424968401EEFD16BE000224FF0804304E000224FF0B5
:201FD000805300E0002394F82F00010706D594F82F0010F0070F18BF43F08073B4F92C10C6
:201FF000E0686668B0470AF07FFA0646688F401CC0F30B0068870020696B81F82F0005F173
:202010003400FFF775FAFFF766FEB5F93A00B5F93810884239D1E26892F8C210052001B18E
:202030000720FFF7FCFA6548E3680268934208BF426893F8C200002100B91968002583F88D
:20205000C2504AB192F8C20010B182F8C25003E01068884228BF014619B9BDE8704001202F
:20207000EDE411F1010F10D053480268E068B1FBF2F1012998BF012178300AF029FAE06801
:20209000BDE8704078300AF025BA70BDE0681822283005F0DCFF226A002020626068002865
:2020B000A1D094F82F1001F00701012906D002293FF480AF04293FF481AF83E700224FF0F3
:2020D000005380E72832002038B50D46A807DFF8604B18D5FFF756FF606B25F0020510B16B
:2020F00045F0020109E0680702D4606A00285FD004F1E4000AF0F0F9042104F14400BDE88A
:2021100034400AF023BA680752D5012084F82000042008F0A1FF09F05BFFC4E90001606A8A
:2021300078B1C568E06B002818BFA84208D095F82000410704D5EB69002204212846984777
:20215000E563E06B4168DFF8EC0A0A780260022008F082FF112005F0D5FC0120A076E06B6E
:20217000017C002919BF207E00280E2005F0CAFCE06B844A40688168002904BFC06800283C
:2021900004D00021D161DFF8A40B106040F2FF70DFF8AC14086000219161DFF8B00C50611B
:2021B0000FF21D0020641920BDE832400AF0A4B931BD0000882F0020D83500203C35002043
:2021D0002DE9F0430546880085B040F195800020FFF7ABFE6B4EDFF8AC0BDFF8549A674FD7
:2021F0000021F161306040F60A08012009F0DEFB0FF29910C9F84000A7F8008000207880AF
:202210000021387B00F0F00038737960787B00F087F87873AA681446618099F8181009B169
:20223000687CA0B1108840F60201884218BFB0F5C15F05D1218A4FF60F400140218204E045
:20225000218B4FF60F4001402183002068746946104605F0D3F8684609F052FF40F6040155
:2022700040F60302606800281CBF0388434518BF934244D08B4218BF0446F3D13FE0288DEF
:20229000A8B100216985E96205F134004278017802F0F00201F0F00142F001020170427000
:2022B00005F128007860787B00F0F00078734FF6FF30A9680A8A02400A82F0690028FCD026
:2022D0000021F16199F81F00012806D108F0C2F90028FBD00AF026F90CE0012009F064F8AA
:2022F000012807D0607B00F01BF860730FF23D00C9F84000A868306005B0BDE8F0836760AA
:20231000607B00F0F0006073D9F8240080680088904218BF8842B2D10020C9E90000C6E745
:2023300000F0F00040F0010070470000DFF8202B114200D17047012010B509F035F8012893
:20235000DFF8EC4806D10FF245010C4821640D49086010BDDFF8582C10683221B1FBF0F12D
:20237000012998BF0121E43420460AF0B1F82046BDE810400AF0AEB864350020943500202C
:202390000000044000100440AA3500202DE9F84F07460C466004DFF898681FD50AF0A4F8D5
:2023B000F56A0146A5B12F6AB80711D40020286208460AF061F96868002818BF002F0AD0B0
:2023D000B5F92C10E8686D683A460023A84702E008460AF051F924F4804427E1A0006FF4F1
:2023F000807940F6020557D596F8200028B1042008F03CFC002086F820000AF075F88046A5
:20241000B8680188A94218BFB1F5C15F00F026F9D6E900AB0020834508BF824521D0042077
:2024300008F0C2FFE8B1D6E9005109F0D1FD854231BF451B401E451B6D1C788AF96800EBB7
:2024500015308842F86002D209184908F96040F2D171F868A0F5FA70884224BF40F6C411DB
:20247000F96000F0F7FCFFF7A7FB58B1BD6900F0EFF8A847706A18B119200AF043F801E091
:2024900044F002047D6900224FF0806300213846A84724F00054C9E0A00709D5FFF772FD3F
:2024B000706B002824F0020401D044F00204BDE060051CD50AF018F8756A074695B1F06B1A
:2024D00010B178300AF008F8E868F06300F0D3F809F07EFDB0604FF400610FF2A1103064BD
:2024F00000F006FB0020707724F480649EE020073ED5707F012802D10021717735E0B06AFD
:2025100098BB0120F0760021DFF8AC0B71763064FFF728FA022008F0A9FB112005F036FA7B
:20253000F16B087C10B90E2005F030FAF07F012804D10021F177052008F098FB0020F07669
:202550003077DFF8780B0178012904D100220270042100F0CDFAB6F93A10B6F93820022060
:20257000914208BF0720FFF75AF824F008045DE0A0040FD5F56A002D1CBF6868002806D028
:20259000B5F92C10E8686D6800222023A84724F400544BE0E00438D5FFF70EFB20B1D7F8A1
:2025B00018C000F055F8E0470022DFF8941400F04BF80020B07701207076B8680188A94219
:2025D00018BFB1F5C15F00F049F800207874B56809F0FEFCDFF86825F36B17680421BB429E
:2025F00008BF00214DB1854231BF451B401E451B6D1C02F108002D0B45500020B06024F477
:202610008054192009F07EFF10E020040ED5B06A816848880028FAD0B16A8868418801296D
:20263000F5D0192009F06EFF24F4004434B1214606F14400BDE8F44F09F088BFBDE8F18FF6
:20265000000004606C32002006F1780009F05CBF00224FF0007349463846704705D1028ACB
:202670002D2161F3091202827047028B2D2161F3091202837047384609F0FEBFF0B50446A9
:20269000080585B07BD5DFF8A865002070760120B077F06B90F820104A0703D5C3690022DC
:2026B000042198470022DFF8F81ADFF8F85AFFF7CBFFDFF8E40B3064F06B406881680029A3
:2026D00004BFC068002804D00021E961DFF85C0628600120FFF729FC0020E86140F60202F8
:2026F000DFF8A00628600020A16848800888904218BFB0F5C15F05D10A8A4FF60F40024096
:202710000A8204E00A8B4FF60F4002400A830120607440F6040240F6030340F60A0C4868D8
:2027300078B3078867451CBF9F42974229D00146F5E7208DA8B100226285E26204F13400F6
:202750004378027803F0F00302F0F00243F001030270437004F128004860487B00F0F000A6
:2027700048736946A06804F049FE684609F0C8FCE8690028FCD00021E961A068286005B03C
:20279000F0BD00204860487BFFF7CAFD4873706A80680088984218BF9042CAD10020B060E1
:2027B000DFE7000020000E000C10044038B5DFF88044A16A61BB606A78B3617E29B1012037
:2027D000FFF731F9BDE832402FE0A07E28BB09F08BFE0546606A8068FFF74DF9E17E21B1B6
:2027F000DFF8D828012010700DE040B1E4340146204609F06DFE204609F06CFE03E0A07F7F
:2028100008B900F00DF82846BDE8324009F034BFBDE832400020FFF755B931BD743500208F
:20283000042104F1440009F091BE192009F06ABE30B585B004F028F8DFF8880BDFF8884B46
:202850000168DFF8EC5341F002010160684609F067FCA078DFF8741B02906A4605F1440050
:2028700007F052FF684609F023FC2178DFF8D42B019100208DF808006B46192105F1780033
:2028900007F0D6FD684609F04BFCE078DFF8B81B02906A4605F1940007F036FF684609F0CF
:2028B00007FC01208DF808006B466078DFF89C2B01901A2105F1C80007F0BAFD00230022B3
:2028D000DFF88C1B05F1E40007F0F6FADFF8E807DFF8802B28640023042105F5847008F0A7
:2028F000E5FEDFF8740B4FF6FF7181830021C177C5E9001129766983E96185F82010052017
:2029100028740020DFF8541B08704FF4FA718C488160C16005B030BD10B5818B4FF6FF7280
:20293000914209D00024012202FA04F3194206D1641C64B20F2CF7DB6FF0010010BD9943C3
:20295000818304F10C00DFF8C81B0B6882401A430A600220FFF767F8204610BD70B5064691
:202970000C4609F0C1FDDFF8F01A0546C87F420702D58A7F964214D001228B8B02FA06F0BB
:202990000343DFF88C0B8B830C36016802FA06F621EA06060660006818B914B10220FFF72F
:2029B0004EF8C8E3BC3200202DE9F041DFF82C6C0546706A0C460027844290461AD1FEF738
:2029D000D9FD18B394F82F0040F0040084F82F007F1C06F12400FEF78BFD0022214606F1F9
:2029F0003400FEF791FD746A5FEA0800E7D13846BDE8F081716A31B1086820B10A68A24241
:202A100001D00968F7E70C4600E02468002CEED02168FEF7B0FD0028F7D0216891F82F0083
:202A300040F0040081F82F0006F134000A6822607F1C0022FEF768FD5FEA0800E8D1D6E7AD
:202A5000ED1C00002DE9F0478246894602F001040327550809F048FD19F1010F05F00105A8
:202A70008046734E08D1B16A5046FEF739FD00280CBF706AB06A04E0002249465046FEF703
:202A90008BFD70B390F82F100A0629D5B16A884215D190F82F100122A240114380F82F1004
:202AB000002C14BFDFF8380BDFF8380B08F0EAFDA5B1716A2A465046FFF776FF0EE001461D
:202AD0002A465046FFF770FF50B106F1E40009F003FDB07E10B9022100F00AF8832700E010
:202AF000042700F0B7F93846BDE8F0871C10044006F1440009F02ABD70B504460D4609F01B
:202B1000F3FC0646DFF8D40AC16B8C4201D0032070BD407E01280DD1284608F0B3FD044675
:202B3000FFF7D9F804F0FF04012C01D1812070BD022070BDFFF7CFF8012070BD020000405E
:202B50003C350020F0B50646DFF89C0A8BB015460029006818BF002D1C4663D00A78D04014
:202B7000C0075FD571602846002104F0B3FCB56009F0BAFCDFF8747A0546387D02284FDA6B
:202B900008B9FFF755FE387DDFF8641A41F82060401C387500F008FB34B903A80FF6882116
:202BB0001C2205F054FA03AC2068DFF8481A30600A466068F0600B46207C3074A0693062F0
:202BD00001207074608A7082E06800B10246B261606900B10146F161A06800B103467361C7
:202BF000A02106F1280005F0F1FE002106F1400008F01CFC684609F023FC02966B46002268
:202C1000DFF8F41906F1780007F056F96B460022DFF8E81906F19C0007F04EF9304602E037
:202C300000F0C2FA00200BB0F0BD00000100070628320020D0210840F8B5DFF8B0590446B8
:202C5000287D002871D0DFF89469B6F93800B6F93A10884211D000F06BF828B9B16A204642
:202C7000FEF73EFC48B1B06A38B1B0F92C1000224FF0E043204600F0A4F909F035FC074646
:202C9000DFF86C0901688C4207BF0021016000214160287D401E2875C0B288BB707EF463FD
:202CB00001280FD1FEF7CBFE0220FEF7C8FEFFF7E2FC4FF0FF3104F1400009F0C9F909F034
:202CD00013FC074606F1440009F036FC06F1780009F004FC06F1940009F02EFC06F1C8004D
:202CF00009F0FCFB06F1E40009F0E3FB06F5847008F08CFE207C012804BF0E2004F046FEC3
:202D1000F06BA04204BF0020F063FFF7B4FC04F1400009F009FC04F1780009F0CAFB04F137
:202D30009C00BDE8F24009F0C4BBF1BD5100070606F124012046FEF70ABC70B509F0D4FB62
:202D5000DFF89828517E29B1DFF8B428146809F093FC14E009F090FC09F03AF910F5003092
:202D7000DFF8A028DFF8846841F10001A2FB004502FB01553169002024184D412C4620461D
:202D900070BD000001010E042DE9F04782B082460F4691461D4609F0A7FB8046FEF7EDFBCE
:202DB000040046D00AF1780009F096FB00F047F83087A760202104F12E0787F800906560C0
:202DD000308FA085C4F80CA0DDE90A52DFF8380828401140C4E904016A4600207870C4E98E
:202DF0000600214606F12400FEF78EFB08B30AF1C000A18D018000218170787840F08000E6
:202E100078709DF80000012809D1317F00291CBF707E002803D0012100207177307700F0C4
:202E300019F89DF8000008B1FFF7C0FCB4F92C0003E000F00FF86FF00100BDE8F687DFF865
:202E50009C67308F401CC0F30B0070470A00004004000020404609F00FBC2DE9FE4FDFF8DD
:202E7000906780460F4614469A4609F03DFB31688146884508BF716801A8029400903A46A9
:202E9000029B4046FEF7D3FC040006F1320000900ED18178C6F8288041F00401817000F029
:202EB0003BFA9DF8040002285FD16FF002007DE008F1780009F010FBDFF82057A08D28877D
:202ED000A76004F12E0702980179DFF83C073970C4F804A0C4F80C80DDE90CAB20210AEA80
:202EF00000000BEA0101C4E9040100207870C4E9060002984179012903D1787840F01000DC
:202F1000787000F009FA0098C178042905D10278B6F93010F06A00F01AF909F0E5FA81468D
:202F30000098C078022808F1C00602D100F042F829E0012809D105F1E40009F0CDFA00F035
:202F500039F8A86AF8B900F0E7F90098C078002818BF042826D10DF10502214605F1240025
:202F7000FEF7D2FA20B900F0D7F96FF001001DE0A08D30800021787840F080007870B170E3
:202F90009DF8050010B900F0C7F90DE0297F00291CBF687E002803D00121697700202877D3
:202FB00000F0BAF9FFF702FCB4F92C00BDE8FE8FD8350020787840F0800078700021B17068
:202FD00070472DE9F0410C46002C054616461F4601D500201DE009F0B5FA804680222146EF
:202FF0002846FEF7D9FA040003D094F82F00010602D400F042F80BE094F82F0010F00F0F2E
:2030100009D000F03AF894F82F0010F00F0FFAD1022000212FE0D4E9060146F00A06304035
:2030300039400022914208BF904210D000F025F8D4E9060130403940C5E91C01D4E906232E
:2030500022EA000023EA0101C4E9060111E06168DFF8B805814202D06168A9666060C5E968
:20307000186700F00AF84FF0FF3105F1400008F0EFFFD5E91C01BDE8F081404609F0F8BA22
:20309000DCB500F01DF808BFDFF880352046FFF77BFE08E0DCB500F013F808BFDFF86C35AF
:2030B0002046FFF7DAFE0146204602B0BDE8D04000224FF0E04384E7D9200000AB350020D0
:2030D000DDE906670446CDE900671800704770B5FEF7CEFC0546DFF81415DFF800650120EB
:2030F000487504F19C0009F0F7F900F029F804BF707E00280CD1DFF8F81491F8340038B139
:2031100000F052F80720FEF78AFA09F0EDF9054600F016F80CD104F1780009F0DDF9012063
:20313000FEF78DFC707E012805D10121317702E0012084F8C2002846BDE8704009F09CBAF7
:20315000B6F93A00B6F93810884270477AE442F0020277E40FF2D0411C2204F078BF00E0B4
:2031700000BF0022C8E470B5DFF87014CA6B90426FF07F0412D1487E80B109F0B5F905467D
:20319000DFF88C0408F07EFA064600F00DF806F0FF00012802D13602301670BD204670BDD8
:2031B0001F1F000000100440284609F065BA00002DE9F0410E461446832509F095F9032E92
:2031D0008046DFF8187465D8DFE806F002071114B86A50B1B96A888D05E09F48808B4FF617
:2031F000FF71884201D0208055E0802553E0787E207050E024685021204605F0E7FB0021F6
:20321000DFF8EC23080152F82130235004F10C0E0C234B431344491C1E7E0EF80060261DD4
:20323000D3F814C046F800C001291B699C4404F1080343F800C0E5DDB86AA0B1BA6AD368C4
:203250000801491C235049B2BA6A92F82E3004F10C021354BA6A536A221D1350BA6A936A68
:2032700004F108021350786AA8B1042913DC0A01C368A35004F10C0790F82E30BB54271D1B
:20329000436ABB5004F10807836ABB50491C006849B2E9E7032536E19D23000080B58022FC
:2032B000FEF77AF900B1806802BD2DE9F8430446CA480D46417E807F01431E4608BF6FF0B2
:2032D000010027D00A2129806A60DFF88C814046FFF722FB0746781F03281AD2AF7009F0B8
:2032F00003F98146284608F0CDF9054600F014F805F0FF05012D06D108EB870040F8086C64
:2033100040F8144C05E001213846FFF727FB6FF001073846BDE8F283484609F0ADB92DE966
:20333000F8430446AD480E46417E807F0143904608BF6FF0010038D0474F3846FFF7ECFAB8
:203350000546681F03282FD209F0CEF82A02814602F4706216434FF6FC703040AD4908432A
:2033700008F090F900F0FF00012815D1F0040CD5A94901230A6805F10C0083409A430A6055
:20339000BD77F87F40F00400F87707EB850040F8144C40F8088C05E001212846FFF7DEFAB1
:2033B0006FF00105FFF7B8FF2846BDE8F28310B54FF6FC742140BDE81040984B0022194332
:2033D000FFF79ABB002009407FCA0000751E000070B582480C46417E807F014301D1012017
:2033F00070BD1D48C17F4A0707D5837F9C4204D101F0FB01C1770021817709F075F805461A
:2034100001212046FFF7AAFA4FF6FC7000EA042040F0816040F0010008F034F906467E4842
:20343000012201680C3402FA04F421EA04040460FFF7BAFE06F0FF06012E01D1812070BDCD
:20345000022070BDB11E00005B1C0000FD1B0000891E0000ED15000074350020AA3500203E
:203470002DE9F04107460C46154609F03DF85B4EB17E8046707E0143F07E0143062C41D800
:20349000DFE804F004070D10131F2D002868386036E001207874F8686030F86030E02868A7
:2034B00078822DE0286830742AE0286818B98020FEF7B9FA24E0012824D18020FEF7BFFA9E
:2034D0001EE0002904BF706A00280DD12968192009F01CF829681A2009F018F810E000294E
:2034F00004BF706A002801D000250CE0296806F1440009F02FF8296806F1940009F02AF8F2
:20351000832500E00325FFF7A5FC2846BDE8F0810C1004402DE9F84F0E46814630684FEA27
:20353000900A3F48824502D2307A022801D003202DE008F0D9FF2E4C804660680027814525
:2035500008BF012787F0010054F82050B9F1000F04F1320B04D009F19C0008F099FD58B944
:20357000BDB105F19C0008F093FD28B902212846FEF7EEF805000DD19BF80200C4F828907A
:2035900040F002008BF80200FFF764FC0020BDE8F28F02250C204743E01931680161317A4C
:2035B000017620480168BAFBF1F1012998BF012109F19C0008F08CFF09F19C0008F08AFF49
:2035D000FFF748FC012D06D19BF80020B4F93010E06AFFF7BCFD8320D9E700002832002026
:2035F0000100020401000104D4210840943500203C350020731E0000FD1D0000131E00001B
:203610000430044000093D00FDEFFF9F191E000001000304010003060810044001000406A2
:2036300041420F00D8350020FFFFFFFFC4090000000000000000000001003A0100000000B6
:20365000000000002DE9FE4FE54980460122A1F130000260DF480768002FFCD0DE4ADF4ED6
:20367000C027E048E04B17603268920808D2324652F8042C03F14104120C42F0F00222707C
:203690004FF0000A8346C1F800A0DFF864C3DBF80810D64D0191880E43D2480E41D380205C
:2036B00018744FF6D802A3F8512018702868C0F30464162CA8BF203C1F460F3F387800F0B8
:2036D0001F001628A8BF2038844223D0624602F1980EDA4ACEF800A0261A022E05DC16F1E2
:2036F000020FB8BF6FF0010600E002268019166800F01F06844246F4F856A7F866604FF0A6
:2037100001061660E8D11068374617601068CEF80060106828460068C0F30420162808DB13
:2037300006E0A5F1D0000068C0F30460162800DB203800EB2170401C162805DA10F10A0F2E
:20375000B8BF6FF0090000E01520DE4F00F01F0040F4F850A3F85900386880083ABFEA4866
:20377000C0F800A041F04061019E6246A5F13804C80E8F0E80F0010000F00100106087F03A
:20379000010000F0010090602068C0F38367C0F38F21B00C23D2304640F3072000280BD526
:2037B00042425046490805D17F0806BF0127391C4FF6FF71521EF5D1002810DD4FF6FF7239
:2037D000490041F001018A4207D27F0047F001070F2F92BF01210F27111C401EF0D141EA9C
:2037F0000741182007F0F4F92068D24E2768C94CA6F10409C0F3870107F0030041EA0021E4
:20381000D9F8040040F2FF3253468FB22C21466800972746A7F14000B0470C3D2868C0F32C
:203830000D011C2007F0D4F9B84955F8080C014000F07C400143142007F0CAF955F80C1C74
:2038500001F47C000904090C0143102007F0C0F9624955F8042C0968C2F30350C2F3034503
:20387000490813D2DBF800100B0510EB237003D41028A8BF0F2000E05046090415EB2175C3
:2038900003D4102DA8BF0F2500E0554645EA001502F47F4002F0FF01B8F1220F40EA0540BA
:2038B00041EA000124BF02F0804211430C2007F08FF9974DB8F1220F32BF01202868C0F323
:2038D0000070B8F1220F4FEA400040F0200084F8090126BF2868C0F3407001208E4EB8F1C1
:2038F000200F40F0100084F8090138BF514606D33168C80C00F44070C1F384510143282036
:2039100007F066F9B8F1200F26BF3068C0F301505046B8F1220F4FEA400040F0600084F8F3
:203930000C0126BF2868C0F3C0605046B8F1220F4FEAC00040F0800084F8010126BF286816
:20395000C0F345505046B8F1200F4FEA800040F47C40A4F89C0138BF70490AD33068010396
:203970008A15920501F47C1100F00F00114341EA0031082007F02CF94FF48000A5F1D00162
:203990002060674A886D40F21E236FF31F40834216D90868030E13F00F0F03F00F01C0F3B1
:2039B000034018BF491E072805D006280EBF0720801C00F00F0041EA0011A2F1080001706D
:2039D000DDF804C0CCF381477F1E13D07F1E3BD036E0C0469402224300600C40B03F00508D
:2039F00040100940AC3F005015620840881300500000204328460068810C21D24FF480417C
:203A10002160D2F80210430AC0F3033703F0800321F08F010B4347EA0301C2F80210D2F8CF
:203A30000130060A66F30303C2F80130116800F0E70721F0E70147EA010004E02C200940F0
:203A50004FF00040224610603B480068C0F3C0070FB94020A0624FF4007020642868402742
:203A7000C0F3C14040F0300084F8C800CCF3815050B3401E03D0401E1FD002211EE001208B
:203A900007F092FC06460420314605F0DBFC042007F08AFC8642FAD12248066826F07F40FD
:203AB00007F0AAFAD9F81400036807214FF06022300E98474FF4806020600321042005F025
:203AD000C1FC08E0000009400420012105F0BAFC154807F091FA203D2868144947F6180673
:203AF00000F03F0084F8CB0F144B0E80D9F800201868D1680220884711480D4D076001216D
:203B10002960BDE8FE8FC04694042A43FCFCFC008C13005040A00C409813005000803F40C6
:203B30000A600840A83F0050BD37860070B00C4094046042A4010010B03F00502C200940E3
:203B500000600C402DE9F04F07460C221420ADF15C0D0DF1320107F06BFE0028119040F014
:203B70009C819DF83C109DF83D00974C9DF838209DF839509DF83A304FF0000B00EB012022
:203B90009DF8326087F816B094F819C2C7F800B005EB02219DF83B50C7F804B0490205EBF2
:203BB0000322F96052029DF834509DF835303A6103EB0522B4F83A32BA82B3F57A7F21D07A
:203BD00094F804514FF4FA7E00FB03E04FF47A7390FBF3F0B4F8083180B29DB102FB03F563
:203BF000B1EB252F07D053434843A1EB2323B0FBF3F080B206E0BCF1000F14BF42F2B820BA
:203C100048F6E020BCF1000F04BF031C584603D0831000F0030080013B81F87512915D46D1
:203C30001392F0108DF83E50D9468DF83F505E468DF8405010F00F0F8DF8415000F00F0A93
:203C5000ADF8305059460B964FF00100159111D0BAF1050F0ED0BAF1070F0BD0BAF10C0F29
:203C700008D0BAF10D0F05D0BAF10E0F1CBFBAF10F0F5846149004F1E8000DF13E02804631
:203C900008F0BCF89DF83E600146BEB1E9B9384607A90BAA00F02AFC011C16D1BDF82C00FF
:203CB000594608AA7881404604F012FE089E014626B10798864238BF4FF0010929B940464D
:203CD000022110AA08F09AF801469DF8406036B369BB4046022109AA04F0FAFD011C13D19C
:203CF0004046FF21012208F051F9011C0CD14046B6210CAA07F05EFC011C05D14046FF21B2
:203D10005A4608F043F90146099EBDF830004002C4F830021EB186423CBF0120159031B97A
:203D3000404603210DF1410208F068F801469DF84160AEB1002949D1139828B11298139937
:203D50000002B0FBF1F600E05E46404603210AAA04F0BEFD0A9B014613B1B34288BF01251C
:203D7000002933D1149801282BD0BAF1010F26D0BAF1020F23D0BAF1030F20D0BAF1060F69
:203D90001BD0BAF1090F18D0BAF1080F13D0BAF10A0F10D0159801280DD0BAF1040F08D0EB
:203DB000012D06D0B9F1010F18BF5B460FD101230FE002230DE003230BE0042309E005236F
:203DD00007E0FF2305E0C046080200200BB9A7F80AB0404601210DF13F0208F00FF800288A
:203DF0002BD19DF83E6026B1B9F1010F18BF594600D10121BAF1040F88F82E1005D09DF8A4
:203E10003F60002E18BF594600D101219DF8406088F82F1026B11599012918BF594600D172
:203E300001219DF8416088F830101EB1012D18BF594600D1012188F831101199084340B24C
:203E5000119050BB3B7604F59C70B0E804516946A1E8045190E8051081E805103889ADF805
:203E70000800FE7D8DF817607D89ADF80A507A680192F96803913E690496BD8AADF81450B3
:203E90006E468DF81830B6E80E1004F59C74A4E80E1096E8070084E80700119817B0BDE815
:203EB000F08F70472DE9F04F09AFADF13C0D08900A92388809911E46ADF81800101C08BF26
:203ED000002000F08481002700F101094FF0FF3A4FF0010BB8466CE1252940F063811078A3
:203EF000521C0A922D2818BFADF8068005D15846551CADF8060010780A9530281CBF4246DF
:203F1000434605D10A9908785A465B46491C0A912A28CDF80080554616D1306804930A99E3
:203F3000CDF808A0C01C4B1C20F00300001D306050F8044C0A93002C0878009418D5ADF8FA
:203F500006B06442009413E044460AE0610001EBC4010918A1F130040A9908780094491CE5
:203F70000A91302801DB3A28F0DBCDF808A004932E282BD10A9908782A2801F101010A91DB
:203F900011D13068CDF80880C01C20F00300001D306050F8045C002D48BF454608782B4656
:203FB000491C0A9111E0454643460AE0690001EBC5010918A1F130050A9908782B46491C06
:203FD0000A91302801DB3A28F0DB02930AB1224604926C2804D04C2818BFADF8048005D1D5
:203FF0000A990878ADF804B0491C0A910BA9CDF80C800FAB07916428059300F08B8069282E
:2040100000F08880BDF818C0752872D078286ED06F286AD0702850D063283DD073281ED0A4
:2040300009980A990128A1F101010A9115D96B490C68B5F1FF3F03D0A84288BF6D1C00D875
:20405000099D029508A80AA932466B46A0473F180A99039801F1010974E040462AE0306893
:204070000A99C01C20F00300001D306050F8040CBCF1000F01F10109014608B955A001469D
:20409000079107F0C3FF0390B5F1FF3F5BD0A842C4BF281C039056E03068C01C20F003001C
:2040B000001D306010F8040C5D468DF82C000A990395584601F1010945E008203568049084
:2040D000E81C20F00300001D306050F8041C082210230FA804F0DEFD401E079040210170FA
:2040F0000A99079801F1010929E0082302E0102300E00A230A99306801F10109C01C20F0F9
:204110000300001D306050F8041CAA42BCBF2A1C049210E00A99306801F10109C01C20F021
:204130000300001D306050F8041CAA42BCBF2A1C04926FF009030FA804F0ACFD0790059D1C
:20415000281A0390009C241ABDF8065000945DB906E008A8202109AA07F06BFA009C7F1CCE
:20417000641E0094F5D503980546401E039075B9BDF80600E8B10098401E009019D408A8D3
:20419000202109AA07F055FA00987F1CF4E70798411C0791017809AA08A807F04AFA039881
:2041B0007F1CE1E708A809AA07F043FA7F1C09F101094A460A9812F8011C401C00290A90DE
:2041D0007FF48AAE089808B14146017038460FB0BDE8F08F286E756C6C2900C0A0CA00003C
:2041F000BA482DE9F84F0025B94CB749056094F8E200002800F06381012800F02F81B54E8B
:2042100002283CD0032840F05A8151F8250CD4F8B8100029A0F5C060C4F8D400B8BF4942A4
:204230000028B8BF4042814226DA4FF08057D7F8A4014568B4F8BC0030214FF47F4208236B
:2042500000903046A847D7F8A4014568B4F8C00004214FF4F802122300903046A847D7F871
:20427000A401B4F8D070456820214FF440620A2330460097A847012584F8D8501AE151F893
:20429000258C08F029F82F4600B901273946924F38680028FCD0B146012609F10409D9F804
:2042B0002CA03E6009B108F01DF8CAF30720C4F8BC0008F011F8AA4600B9B2463B68002BF1
:2042D000FCD0D9F800B0BAF1000F3E6001D008F009F8CBF38440C4F8C00007F0FDFFAA467E
:2042F00000B9B2463B68002BFCD0D9F81C90BAF1000F3E6001D007F0F5FFC9F38120C4F8B9
:20431000D000B8F5C061C4F8B81000F09C8094F8D80068B9C4F8D410D4F8C000C4F8C8002A
:20433000D4F8BC70C4F8C470D4F8D030C4F8CC30D4F8D410D4F8BC30002954BF02206FF0DC
:20435000010004F1C802176801EB41014018411000EB917107EBA1001060D4F8C810C4F8E7
:20437000C43000291CDD1E293CDDD4F8CC0030B93429B4BF15391E21C4F8C81025E02A29ED
:20439000BABFD4F8C8000B381E20C4F8C800D4F8C4003F28B4BF401C3F20C4F8C4001FE057
:2043B000D4F8CC00032812D011F10B0FC6BFD4F8C8000B30301CC4F8C800D4F8C400002850
:2043D000C4BF401E051CC4F8C450032508E011F1150FC6BFD4F8C8001530301CC4F8C80097
:2043F000C4F8CC504FF08057D7F8A401B4F8C43030214FF47F424568364800930823A8477E
:20441000D7F8A40104214FF400321123456831480096A847B4F8C860D7F8A40104214FF4EF
:20443000F802122345682B480096A847D7F8A40120214FF440620A23B4F8CC6045682548DF
:204450000096A84701E084F8D85040F2FF50404502D8801C40452DD208202EE051F8251C82
:204470001E4F4BF2F5204843060A3868C0F3814001280AD107F0F2F806F0B0F807F038FF0D
:204490003111C010484306EBE03694F8E50030B91348006820F07F408019460801E084F838
:2044B000E5501048310C0660012741600E4D8760287808B90B2000E0052084F8E40001F0CF
:2044D00067FCBDE8F88FC0462D400C402C500C409420002000A00C4000800C40B43F0050E7
:2044F000102009403C600C40A5C900002DE9F04F0646B4480068ADF1240D4FF47A75009047
:204510003069039168434FEA104BF068049201A90790304607F0BAFB3046694607F002F9B7
:20453000044601984FF4004105FB00104FEA1048009805FB00F7B7F5481F88BF4FF44817D8
:20455000002C40F03A81DFF88092D9F8C40199F8C8A10590D9F8C401514607F067FA02900F
:20457000D9F8CC0199F8D011069007F05FFABAF1080F0CBF02210321029A801840F2776222
:204590004143C80200F5FA704FF4FA71B0FBF5F002FB001001998023B8F1000FB0FBF5F28C
:2045B00001F1800008924FEA102120F0FF0002FB013102904FEA112500F0F78005B90125EB
:2045D0004FEA0B40B0FBF8F48048A04238BF041CAB004FF41670444303EBC50006F068FFE4
:2045F000337E4FEA400A3BBB4FEA084000F5FA71A0EB470037894FF47A72B1FBF2F100F55B
:20461000FA70B0FBF2F00002B0FBF1F070494FF4803341F25C26A3EB00224FF4004301FB6F
:2046300007F0B0FBF6F101FB0230000C00F5803040084043860B01E04FF4803604F5004093
:204650004FF400484FF44871000C01FB06814043090C01FB010006F02BFF41F28837642108
:20467000000440F6B53242F210733230B0FBF1F0B0FBFAF002FB0070B0FBF3FBBBF5704F5A
:2046900088BF4FF4704B059806994FF47A7A4FF4C817401800F5FA70B0FBFAF107EB5100A0
:2046B000B0FBF1F006F004FF4FF4FA7101EB0020B0FBFAF040430BFB0B0006F0F9FE5146FE
:2046D000484315B1434A824200D24248C9F82802039A079FD9F84032B9F83C52DDF820C067
:2046F00010602046002F4FF0800405FB03424FEA122205FB02F408BF00270BD0029A3B4654
:20471000920202EB5302B2FBF3F202EB420202FB0282170C4FF4487200F5004302FB068292
:20473000150C03224FF6FF7602EB13426D430623B2FBF3F292B2C2EBC202964209D3C01C77
:20475000B0FBF3F0C0EBC00000F50040000C404300E0214805EB5C05FE222D184FF4FA76DA
:20477000B5FBFCF004F1200380037F30B0FBF2F207FB0260B0FBF1F0000100F5FA70B0FBB9
:20479000F1F7980906F094FE002F05461ABF04EB5704B4FBF7F0002006F08AFE0499A842A0
:2047B0000D6038BF0860002407E00A48049EC9F828020027376003990860204609B0BDE8AD
:2047D000F08FC0461003002008020020666666009A990600AE878F020000F0FF00B563307F
:2047F000ADF1240D49D0313844D00A383FD00A383BD00A3836D008380C2808D8DFE800F053
:20481000302E2B282623201D1A1715130AC01EA1132234E021A0026869460A6043684B608C
:20483000027A0A722EE020A125E026A114E02AA1102224E02CA1192221E032A114221EE0D0
:2048500035A10C221BE037A10F2218E039A1F2E73FA1112213E043A1122210E046A1EAE7CF
:204870004CA10BE051A1182209E056A106E05BA1172204E05FA11A2201E065A1162268463C
:2048900003F0E5FB09B000BD556E6B6E6F776E204572726F7220436F646500C04E6F204528
:2048B00072726F7200C046C043616C6962726174696F6E205761726E696E67204572726F47
:2048D0007200C0464D696E20636C6970706564206572726F7200C046556E646566696E65AD
:2048F00064206572726F7200496E76616C696420706172616D6574657273206572726F7295
:2049100000C046C04E6F7420737570706F72746564206572726F720052616E67652065725C
:20493000726F720054696D65206F7574206572726F7200C04D6F6465206E6F742073757095
:20495000706F72746564206572726F7200C046C042756666657220746F6F20736D616C6CA4
:2049700000C046C04750494F206E6F74206578697374696E6700C0464750494F2066756E98
:204990006374206E6F7420737570706F7274656400C046C0496E74657272757074206E6F29
:2049B0007420436C656172656400C046436F6E74726F6C20496E7465726661636520457234
:2049D000726F7200496E76616C696420436F6D6D616E64204572726F7200C0464469766912
:2049F00073696F6E206279207A65726F204572726F7200C05265666572656E6365205370B7
:204A1000616420496E6974204572726F7200C0464E6F7420696D706C656D656E74656420D8
:204A30006572726F72007047F8B5A0F2013517460E46022D40F214818A4A8B498B4B2D1F9F
:204A50000F2D04D9143D4AD0AD1E1CD011E0DFE815F0C300BC00F400E400B300AB00070191
:204A7000A2009A00100010009200880079006F006300282880F2F480022E40F0F18039889D
:204A900005F0F0FFF8BD012E40F0EA8015462879012800F0E58051793878507181B900288D
:204AB00000F0DE809078012800F0A980042800F0A680062800F0A380052800F0A080F8BDD9
:204AD0003878002840F0CC809078032800F0A280072800F09F80052800F09C80F8BD012ED2
:204AF00040F0BE803878012840F0BA80154605F1F00007F01DFB002840F0B2802C46002089
:204B100004F13E0103F024FF002840F0A98004F1CC0007F021FDF8BD022E40F0A1803888EE
:204B30000A28C0F29D80B0F5486F00F3998015E0022E40F095803888B0F5FA7F80F2908032
:204B50000880F8BD022E40F08B8038880628C0F28780B0F5486F00F383801946891C0D464D
:204B700038E0022E7CD13888062879DBB0F5486F76DC1946F3E7012E72D1387806286FDACE
:204B9000891F0D460EE0012E6AD13878042867DA15460B3506E0012E62D1387808285FDA99
:204BB00015460A352870F8BD012E59D13878042856DA1546093506E0012E51D138780428ED
:204BD0004EDC154608352946DBE7022E48D13888154612352946B3E7012E41D115466879A1
:204BF00001283DD011793878107161B9002837D09078012803D0042818BF052830D1012015
:204C100007F024F9F8BD387850BB9078022818BF052825D107F044FAF8BD154605F187040E
:204C300000211F22204603F0D5FE39463246204603F00DFA0020EE710EE0154605F1680455
:204C500000211F22204603F0C5FE39463246204603F0FDF90120AE713146224605F01EF856
:204C7000F8BDC0465014002094140020901400202DE9F04F8A4EADF1240D05900020069111
:204C900006F1E80A009005468DF812508146CDF80490B6F824728DF81390062506F5037034
:204CB0006D1E00F8019BFBD15046FF21012207F06DF95FEA000840F0EE8050464F214A463E
:204CD00007F064F95FEA000840F0E58050464E212C2207F05BF95FEA000840F0DC80504679
:204CF000FF214A4607F052F95FEA000840F0D3805046B621B42207F049F95FEA000840F0E1
:204D1000CA80504680214A4607F040F95FEA000840F0C1800DF112000DF113014A4604F0DA
:204D300093F85FEA000840F0B6804D464846494603226B46009503F0E5FB5FEA000840F0B2
:204D5000AA80009C02A804F0E9FAB34680464846B8F1000F07902CD1BDF80800874228DADB
:204D70000AF592700626761E00F8019BFBD104F1B40007F077F808B92C2C18D30120214667
:204D900003226B4603F0BEFB5FEA000840F08380009C02A804F0C2FA5FEA00087BD1BDF8B5
:204DB000080001268742BCBF0796032502E0641CDDE74E46B8F1000F6DD1BDF80800874275
:204DD00055DD07960AF592710A680DF10A00026089888180BDF808000AF59279C01B48BF5B
:204DF00040420325824607E049460A6882460DF10A00026089888180204601A904F082FB84
:204E10000198B0F1FF3F44D00198B43007F02AF886422CD1019806F067F95FEA00083AD150
:204E3000019C484607F0EBFA641C5FEA000832D102A804F073FA5FEA00082CD1BDF8080071
:204E5000C01B48BF4042BDF808106D1C8F42CBDA82450CD20DF10A0007F0D1FA804649464E
:204E70000DF10A00026880880A606D1E8880B8F1000F10D105980127056006998BF8FD7158
:204E9000079A0A7000788BF8FB010E788BF8FC6101E06FF03108404609B0BDE8F08FC046A8
:204EB000080200202DE9F047DFF80CA20746AAF13500DFF8F8810068800880F0E78006F0BC
:204ED000CDFB814908310B6800261C17641C990D0AD2C0F13E0110F10A0F4FEAE101D8BF6D
:204EF00008218C42B8BF0C1CDFF8C4C1990E0FD2590E0DD36246143A1168C1F3042116295A
:204F1000A8BF20391268C2F30462162A0EDB0CE0634AD2F87C11C1F304611629A8BF2039FB
:204F30001268C2F30442162A00DB203A09199146162905DA11F10A0FB8BF6FF0090100E085
:204F50001521584C584D01F01F0242F4F85222802A6812F0030F18BF0126D20828BF46F0F3
:204F700002060FB146F00406424692F90740041B052C04DA9479B44208BF918866D00F2841
:204F9000A0F10F0827DB08EB0014A4F1F0084FEA282EBEF1070F88BF4FF0070E7546062DE6
:204FB00088BF06255CF82570042404EB850465462C59E41B04F0FF05F70824BFC4F30727F8
:204FD0003D44B70824BFC4F307473D44770828BF05EB146501E00025AE465CF82EC0F7080E
:204FF0000CF0FF0424BFCCF307273C44B70824BFCCF307473C44770828BF04EB1C64ADB2EF
:20501000A9EB0101A8EB0E277D43002905F1800504EB1524D8BF012103F0FF0334254D43FF
:20503000A9B259434FF6FF73B1FBF4F18B4238BF191C802889B2918005DA10F1800FB8BF4E
:205050006FF07F0000E07F20D0719671194800681F2910604FF0000008D340F2FF128A42F1
:2050700006D24908401C8A42FBD301E01F219180124F0F39090940EAC10047EA0001CAF835
:20509000FB1F0026CAF8FF6FBDE8F0870C490D4F424608200F60921D1070BDE8F087C04653
:2050B0003C1100506E62084024220840C83500209C130050082009403500094000E7A48087
:2050D00030100940FDFDA400AC3F005001282DE9FE4F40F0EE80DFF810B2DBF8DC000128C3
:2050F00040F0E4800220CBF8DC0006F06FFC012004F0D8FF5FEA000805D00120CBF8DC0018
:2051100006F074FCD7E007F01DFA6C49029000200860012006F048F9012818BF002003D139
:20513000002004F0C9F80120654900900020654F08603868112007F0EDF800280CBF00242B
:205150000124102007F0E6F808B144F002040F2007F0E0F808B144F004040B2007F0DAF83B
:2051700030B1624814300068574E016B308888470A2007F0CFF8002600B101264FF0805A51
:205190000AF5DC75301C04D02868504E016B308888474F48012606602868816944F020007C
:2051B00088474C48066007F0AFF800F001010191400814D2484807F01DF88146B9F1040FA6
:2051D000F8D0B9F1010F05D1DAF8D80142684248032190474149086820F0030008600020F8
:2051F000FFF760FE2B683868986B8047019801280DD0B9F1010F05D1DAF8D801426836484C
:20521000314690473549086840F0030008602C48066028684169204688470B2007F07AF8CA
:2052300020B12868284BC16A188888470A2007F071F820B12868254BC16A1888884724488F
:20525000032206602349CBF8DC2000230B602868416B204688470128F9D13868042004F0DE
:2052700021FF044615481E490660386808688009FCD30098012802D1304604F01DF807F018
:2052900031F8082004F00EFF07460298CBF8DC6007F0EEF91348008803F040FE06F0A6FB3D
:2052B00057EA040018BF4FF0FF3804E06FF0040801E06FF001084046BDE8FE8F0C40094067
:2052D000000222432C2009408AC7000086C70000282008608001044300400340242208409B
:2052F00014100940A0C9000094200020A40100102DE9F0411C4615468C4208BF854282BF9E
:2053100000230022E5E0002C08BF002D0AD100290EBF00286FF000006FF0000100F0E1F8D2
:20533000BDE8F0815FF000085FF0000E002C08BF8D429CBF2C1C0025070C47EA01470E0C63
:20535000B44208BFBD429EBF5FEA044444EA15445FEA0545070A47EA01670E0AB44208BFFA
:20537000BD429EBF5FEA042444EA15645FEA0525470847EAC1774E08B44208BFBD4200F27A
:205390009380870847EA81778E08B44208BFBD427CD8C70847EA4177CE08B44208BFBD4242
:2053B00066D8070947EA01770E09B44208BFBD4250D8470947EAC1674E09B44208BFBD422F
:2053D0003AD8870947EA81678E09B44208BFBD4224D8C70947EA4167CE09B44208BFBD4277
:2053F0000DD8E60146EA5566EF01B14208BFB84201D3C01BB14158EB08085EEB0E0EA60142
:2054100046EA95664FEA8517B14208BFB84201D3C01BB14158EB08084EEB0E0E660146EAE8
:20543000D5666F01B14208BFB84201D3C01BB14158EB08084EEB0E0E260146EA15762F01A2
:20545000B14208BFB84201D3C01BB14158EB08085EEB0E0EE60046EA5576EF00B14208BFA5
:20547000B84201D3C01BB14158EB08084EEB0E0EA60046EA9576AF00B14208BFB84201D3C1
:20549000C01BB14158EB08084EEB0E0E660046EAD5766F00B14208BFB84201D3C01BB141E2
:2054B00058EB08085EEB0E0EA14208BFA84201D3401BA14158EB08085EEB0E0EA34208BF1B
:2054D000AA423EBF2D0A45EA0465240A89D3734642461E4617460B46024631463846BDE845
:2054F000F08170472DE9F04FADF1240DFBF724FB6E4D08260A20ADF80200ADF800604FF041
:20551000FF370197684605F0E1FA002840F09F8000200790ADF810600927ADF8127004A8E9
:2055300005F0D4FADDF818800028CDF81C8040F08980BDF814000127102852D128789DF8E8
:20555000161088424DD1444620884FF6FF71814217D02078B02844D1607816280BD160883D
:20557000314605F087FE30B9384605F08BFF07980027A86135E0217904F10800FBF72CFDAE
:205590002FE0608800092CD3AC6954B36878B4F802B0401C687094F804A0102006F0D6F949
:2055B00004F10809041C1CD00221152206F05AFEA4F808B084F80AA0C4F80C9006F0D6F98A
:2055D0003B4A214605F0FAF80446162C09D0042C07D0A8694088002105F04CFE204605F0E8
:2055F00051FF079800282DD067B3404606F0A5FB28E06869044607F037F8844208BF002754
:2056100002D0876806F081FB381C1BD03888401E0CD0401E0DD1B87818B1801E09D102203F
:2056300000E0002008A905F051F802E0B87801F03DFCADF808600520ADF80A00039702A80A
:2056500005F044FA686907F00BF80028D1D06888C108FFF44FAF20F00400688006F070FE69
:2056700001F086F800218DF821000712A960C8288DF8227005DB0220012104F095F90320F2
:2056900004E00320012104F08FF90220002104F08BF9032001210DF1210203F003FF01201E
:2056B0000DF12202014603F0FDFE23E7080200203DC200002DE9F0410646ADF1200D06F0FC
:2056D000AFFE0D46041C40F0D5803046F82106AA05F070FF05F1080480B93046042102AAF0
:2056F00005F0C6F850B9BDF8181029B1BDF81810029AB2FBF1F121602168B161041C40F0B3
:20571000B9804FF00008304620210DF11A0285F80C8005F04FFF05F1100468B9BDF81A10D2
:20573000002904BF316A424604D0BDF81A10C9003162012221603277041C40F09B8005F18D
:205750001401304605F03EF9041C40F093804746002C40F08F8005EB8702B9B23046243277
:2057700003F0B6F8044364B2002C40F08380EA19B9B23046183206F041FB7F1C0443062F45
:2057900064B2E5DB002C75D13046012107AA06F0F2FB05F13C0470B99DF81C109DF81C7044
:2057B00086F8301137F07F010CBF414601212170217886F84C10041C5CD14FF4FA602D1DC7
:2057D000049040F63637CDF8148069462F60304604F068F9041C4DD19DF801109DF80000A7
:2057F0009DF802700843074322D03046022104AA01F0D4FB041C3DD19DF800702FB1049954
:205810002868401800F24E2028609DF8027047B99DF8017067B104992868401800F5257074
:2058300005E004982F6800F2B22107EB410028609DF803705FB13046032105AA01F0AEFBC5
:20585000044605992868401800F5257028608CB99DF804705FB13046042103AA01F09EFB26
:20587000044603992868401800F2262028600CB928687061204608B0BDE8F0812DE9F04FDB
:20589000ADF1240D079000F0FFFF6148007805F075FD604D0024012808D90A380FD0801E82
:2058B00004D0401E0ED0401E09D006E006F06AFA022804BF01210C1C06D0696805E0052168
:2058D0001F2401E0032107246960534A1068C0F38150012806D152F80C0C0127020E07FA48
:2058F00002F0044306F014FC524AFF230818401E471C28607F1E02F8013BFBD1079A126878
:20591000002702F0FF03FE2B20D0DDF81CC096463B4601260EF0FF02FF2A10D0904205D35C
:20593000914203D806FA02F2144201D002206CE017430EF0FF02DFF8FCE00EF802305CF888
:2059500004EF5B1C0EF0FF02FE2AE5D1092002F0D9F807980121A86005F1280005F066FDC5
:2059700005F19806A8464FF0010A4FF0040B0025A9460AFA05F0044216D1074204BF05F0C2
:20599000FF0141F4C04104D02A480799405D51F82010224801F0E8FBE8B24FF0FF3106F088
:2059B00003F9C6F8009001E0C6F800B0D8F800006D1C361D8542DCD904A806F079FB184C9C
:2059D000184A2078102104AB059008F10C0004F02FFD684606F0A4FBCDF80C906A46606807
:2059F0001149029008F1640004F08EFE0F4951F80D0C20F4F85040F4005041F80D0C0C4F87
:205A1000C1F8FFAF4846C7F800A009B0BDE8F08FE0350020801F0020B43F0050007FC76761
:205A30004CCA0000D5BB0000C1A200000D30094008000940C41F00202DE9F043684D8821CC
:205A5000002205F1E804ADF1440D204606F09EFA00264FF47A70A5F83A024FF4C870A5F80B
:205A70003C02604885F8D861A146C5F840025E48C5F808616946C5F8BC014846FFF71AFE03
:205A9000041C09D18DF800608DF8016005F1F8006946402202F0DBFA64204FF001084FF45C
:205AB0006177A5F81C024FF4FA73802185F838824246A5F81E724846A5F820324FF42067BF
:205AD000A5F8247206F062FA0443FF214246484606F05CFA64B2314604430A46484606F0C0
:205AF00055FA64B2912110AA0443484606F043FA64B204439DF840003146424685F82202EB
:205B1000484606F043FA64B2FF2132460443484606F03CFA64B2802132460443484606F00B
:205B300035FA374664B2044364B2002C53D1B9B24846424602F000FE7F1C0443062F64B248
:205B5000F3DB002C47D148460221324602F0F4FD041C40D148460321324602F0EDFD041CC0
:205B700039D148460421324602F0E6FD041C32D148460521324602F0DFFD041C2BD1484644
:205B900031464FF4901203F0B7FF041C23D1484641464FF4804203F0AFFF041C1BD1484687
:205BB00002214FF40C1203F0A7FF041C13D148460321324603F0A0FF041C0CD1FF2248464C
:205BD000414685F8182206F0E1F985F81A82041C08BF85F8FD61204611B0BDE8F083C04687
:205BF00008020020856B0100A47009006549F0B54022ADF1540D684602F029FA0020ADF821
:205C10004800624C8DF84A0006468DF84B000121109604F1E8000746FAF7EEFC94F8FC112D
:205C300094F8FB01022906DA012901D1202802D839B90C2805D910A80DF14B01FFF718F897
:205C500001E002F0CDFB002840F09A8094F8380200280CBFD4F834024B4802F0E1FC0028E2
:205C700040F08E8038460A21042206F08FF958B938468421EF22334604F017FE20B90420C5
:205C900084F8C20103F0E4FE002879D13846FF21012206F07BF90546842112AA384605F024
:205CB00089FCFF2132460543384606F06FF96DB2054368B2002863D1BDF848006946000109
:205CD000C4F8BC013846FFF7F5FC002858D1384609210DF14A0206F04EF928B99DF84A1086
:205CF00001F001018DF84A10002849D19DF84A006946402284F8190204F1F80002F0A7F97A
:205D1000384601210DF14A0206F035F9002837D19DF84A0084F818023046014601F014FD01
:205D300000282DD10220314601F00EFD40BB03253846314613AA84F81A5205F026FCF8B913
:205D50009DF84C00012113AA84F8D001384605F01CFCA8B99DF84C00294611AA84F8C801EA
:205D7000384601F01BF958B91198042111AAC4F8CC01384601F012F910B91199C4F8C411EF
:205D900015B0F0BDC0C8000034180020080200202DE9F843614C5A4D5A4EDFF870815E4FA1
:205DB00094F8E4100846401E0B2864D8DFE800F07B2C43062343062343067664042907D0DB
:205DD00001220A2945F8212C14BF0220032004E0202045F8210C0120024684F8E200002046
:205DF00045F8390C0827C5F8FF7FC5F8F37F45F8392CBDE8F883052914BF0920062000273F
:205E100084F8E400376075E094F8E170383D0120002FC5F81B0004BF0620002102D00021AF
:205E3000F160032084F8E400032045F8010C3160306880085ED294F8E410334801270329E1
:205E50000ED00068456800216022052300914046A84794F8E400062814BF0A200720CFE7F6
:205E700000684568002160220523022000904046A8470420C4E7FEE72548264F0026012529
:205E900006600E203D6001F081FD022004F0EEFE84F8E45084F8E360BDE8F8830020386009
:205EB0000C25786024E04FF08059D9F8A0010168202088472C3D0F2045F8010C41F61D5637
:205ED000C5F80360D9F8A401466800214FF4C0720723022540460095B047D9F8A401C668D1
:205EF00000214FF4C07207234046B0470120386084F8E45004F1780006F0ECFABDE8F88383
:205F100039400C4038600C40A401001000A00C402C500C4004800C4034600C4094200020DB
:205F30002DE9F04704466568A6680F46ADF1200D06F0DAFA95F8DC10012903D106F09CFBF1
:205F5000002085E04FF0010A85F8DCA006F094FB3878287078686860387AE860706801F031
:205F7000D1FD204603F0EAFEF868676828B9A06890F8149090F8158003E090F8009090F81E
:205F90000180B9F1FF0F15D0B8F1FF0F12D0324840EA09010491FE23069340EA080004A95E
:205FB000059007F1980002F0A1F8C7F8A400D7F8A40070B9294800240460294F3C6070683D
:205FD00001F0E4FC06F090FA85F8DC4006F054FB3DE049460D2205F013FAD7F8A4004146AB
:205FF0000E2205F00DFA684606F062F8307B00946B46B1681B4A019005F1100004F018FA5C
:20601000684606F08DF8306900946A461649029005F12C0004F078FB05F16000514605F00E
:2060300005FA287830B905F17C00002105F0FEF90E48686000202872C5F8BC000C4AC5F8E5
:20605000C0000421234605F1C80005F02FFB204608B0BDE8F087C0460020008404280040B5
:2060700010040542AD690000B198000019C4000071C100002DE9FF410D46074600266808BB
:206090008DF80C6080F09580DFF8308137B1012F304602D10E2D00F38C806FB90E2D14BF21
:2060B000502230224046572105F070FF40465621082205F06BFF31E0012F2FD10E2D2DD1AA
:2060D000482140460A4605F061FF40464721082205F05CFF044632210322404605F056FF22
:2060F000302107220443404605F050FF64B2FF2101220443404605F049FF64B230212022F9
:206110000443404605F042FF64B2FF2132460443404605F03BFF64B2044360B200284AD110
:20613000274C6810401E5FFA80F8381C16D0401E3FD104F1E80004216A46074600F02EFF71
:2061500048B942463846702105F020FF18B90099042000F0ABFC84F8C8511EE004F1E800EE
:20617000032101AA074600F019FFA0B93846022102AA00F013FF70B938465021424605F0AE
:2061900005FF40B90199032000F090FC18B90299022000F08BFC84F8D05160B9D4F8FC0036
:2061B00001F050F838B903A83146012203F052F801E06FF003000090BDE8FF81F002002019
:2061D00008020020F8B5064605F0BAFF002840F08B80464A694602F1E800054606F020F907
:2061F00000287AD19DF80010144600296BD128460DF1010106F014F901222846802105F020
:20621000C5FE2846FF21012205F0C0FE002128460A4605F0BBFE94F822222846912105F0D5
:20623000B5FE28460021012205F0B0FE2846FF21002205F0ABFE28468021002205F0A6FE2E
:206250009DF80110E1B1491E0CD0891E39D110B9012001F065FD28460021042205F096FE87
:2062700050B130E010B9012001F05AFD28460021022205F08BFE30BB042184F81A1222E0E0
:2062900028460021012205F081FE01218DF80210C8B900272FB1284600210DF1020205F001
:2062B0006AFE9DF802107F1C490804D318B9B7F5FA6FEFD302E0B7F5FA6F04D36FF0060021
:2062D00001E06FF0070040B902F088FD28B99DF8001011B9032184F81A1228B93046FDF790
:2062F00031FC08B903F0B4FBF8BDC046080200202DE9FC41474D804628680C46804720683B
:20631000B0F1FF3F7BD06269500975D2100A4FF0000721D32868804721686868B1F1FF3FF4
:2063300018D0204601F0A2FC6069226820F42060002A60610DD40A2A0BDA3549D0004658B8
:206350003EB10A584018D16940680B46022239469847686880476269900904D2D00924BF42
:2063700042F020026261666856B9D00808D202F00702204639464FF4807301F015F9074605
:20639000E168002F21613AD1606900F0070004281BD0A068814204D8204601F067FCF0B907
:2063B000A068411CA1605FFA88F606706069800806D3B8F10A0F03D1204601F057FC70B987
:2063D000686880473046BDE8FC8120688DF800806946012205F0CEF9B0F1FF3F06D16069E4
:2063F000696840F48060606188470AE0686880475FFA88F0BDE8FC8142F4806262616868F9
:2064100080474FF0FF30BDE8FC810349FFF770BFA821002074260020701D00202DE9F04FFF
:206430000C464549CA7AADF12C0D84460592487B09900D7900958A7A488B4B8A0E7B91F8BB
:2064500005A091F802800492B1F846E008904A7A088B0392CD7807900A7AC88A02920F6AD4
:206470000690CA79888A01928A79E146A9F54079B9F11D0F10D8DFE809F05B5553514F4D9F
:206490004B494643413F3C3A380F34312E2B2923201E1C0F19181716BCF1280F49DA604614
:2064B00004F024F821E0099EB246D046CDF814801DE00898079007980690DDF818E005E092
:2064D0003831086820608888A08032E070460AE0B1F8440009E0B1F8420004E0B1F84000E3
:2064F00001E091F83E00034612E0208021E0059804900498039001E03231E2E7039802906E
:206510000298009006E0019A87310DE068310BE01846EAE7009D0BE02C31D2E7276008E05B
:20653000583100E048311022204601F090FD00E025700BB0BDE8F08F50140020364AF8B54E
:20655000101D0368B3F1FF3F08BF002305F01EFB012860D1314E10683268070F02F0FF02C5
:20657000802A28BF002205F011FB4FF0FF31012805D1381C4FD0801E04BF143251B214298F
:2065900049DB27482749002501270560264E0F60264C376020680028FCD1274A161D2449BC
:2065B000244F306820F0030001433868C0080CD2106810F0030F0AD041F003003060106883
:2065D00000F003000328FAD101E041F001011B483160006820B11A4800681846FDF732F83B
:2065F000184819490560194F0A686FF35B4247EA0200086016490868C0F30130012806D13D
:206610000A681448104040F400320A60086020680028FCD1F8BDFEE718130050A010005082
:20663000840460425C600C40082204430C00684204000020B03F005000400340800128431F
:20665000000120438C210840482003400000390104000940FFFFFCFC2DE9F0413B483A495C
:2066700008603B48FFF70AF93A4C201D04F1100101F03CFD05210023374A206004F11C00D8
:2066900005F014F84FF08055D5F8D801334C036801210A4620469847D5F8D801426801211C
:2066B00020469047314C0025032004F1180141F80C5F401E8D60FAD1241F062004F14C0155
:2066D0000A46401E22F80C5BFBD10820244F0880244A8F602449121D22F00303CF1A6762C9
:2066F000E3612362E66904F12008944618460A4601E026F8025BB142FBD8B910E82700EBE8
:20671000810121F8045C4FF6FC761F8006EA0C0300F1E807D21A676106EA0201EC39A0F8D5
:20673000E810284602F092F8A061D8F80000606102F0E8FA03F03CFD03F0AAFF05F08CFFB9
